{
  "_format": "hh-sol-artifact-1",
  "contractName": "TokenSystem",
  "sourceName": "contracts/TokenSystem.sol",
  "abi": [
    {
      "anonymous": false,
      "inputs": [
        {
          "indexed": true,
          "internalType": "address",
          "name": "recipient",
          "type": "address"
        },
        {
          "indexed": false,
          "internalType": "uint256",
          "name": "amount",
          "type": "uint256"
        }
      ],
      "name": "Reward",
      "type": "event"
    },
    {
      "inputs": [
        {
          "internalType": "address",
          "name": "",
          "type": "address"
        }
      ],
      "name": "balances",
      "outputs": [
        {
          "internalType": "uint256",
          "name": "",
          "type": "uint256"
        }
      ],
      "stateMutability": "view",
      "type": "function"
    },
    {
      "inputs": [],
      "name": "decimals",
      "outputs": [
        {
          "internalType": "uint8",
          "name": "",
          "type": "uint8"
        }
      ],
      "stateMutability": "view",
      "type": "function"
    },
    {
      "inputs": [],
      "name": "name",
      "outputs": [
        {
          "internalType": "string",
          "name": "",
          "type": "string"
        }
      ],
      "stateMutability": "view",
      "type": "function"
    },
    {
      "inputs": [
        {
          "internalType": "address",
          "name": "recipient",
          "type": "address"
        },
        {
          "internalType": "uint256",
          "name": "amount",
          "type": "uint256"
        }
      ],
      "name": "reward",
      "outputs": [],
      "stateMutability": "nonpayable",
      "type": "function"
    },
    {
      "inputs": [],
      "name": "symbol",
      "outputs": [
        {
          "internalType": "string",
          "name": "",
          "type": "string"
        }
      ],
      "stateMutability": "view",
      "type": "function"
    },
    {
      "inputs": [],
      "name": "totalSupply",
      "outputs": [
        {
          "internalType": "uint256",
          "name": "",
          "type": "uint256"
        }
      ],
      "stateMutability": "view",
      "type": "function"
    }
  ],
  "bytecode": "0x60c0604052600c60809081526b29bab83837b93a2a37b5b2b760a11b60a05260009061002b9082610112565b5060408051808201909152600381526214d41560ea1b60208201526001906100539082610112565b506002805460ff1916601217905534801561006d57600080fd5b506101d0565b634e487b7160e01b600052604160045260246000fd5b600181811c9082168061009d57607f821691505b6020821081036100bd57634e487b7160e01b600052602260045260246000fd5b50919050565b601f82111561010d57806000526020600020601f840160051c810160208510156100ea5750805b601f840160051c820191505b8181101561010a57600081556001016100f6565b50505b505050565b81516001600160401b0381111561012b5761012b610073565b61013f816101398454610089565b846100c3565b6020601f821160018114610173576000831561015b5750848201515b600019600385901b1c1916600184901b17845561010a565b600084815260208120601f198516915b828110156101a35787850151825560209485019460019092019101610183565b50848210156101c15786840151600019600387901b60f8161c191681555b50505050600190811b01905550565b610368806101df6000396000f3fe608060405234801561001057600080fd5b50600436106100625760003560e01c806306fdde031461006757806318160ddd1461008557806321670f221461009c57806327e235e3146100b1578063313ce567146100d157806395d89b41146100f0575b600080fd5b61006f6100f8565b60405161007c919061021b565b60405180910390f35b61008e60035481565b60405190815260200161007c565b6100af6100aa366004610285565b610186565b005b61008e6100bf3660046102af565b60046020526000908152604090205481565b6002546100de9060ff1681565b60405160ff909116815260200161007c565b61006f61020e565b60008054610105906102d1565b80601f0160208091040260200160405190810160405280929190818152602001828054610131906102d1565b801561017e5780601f106101535761010080835404028352916020019161017e565b820191906000526020600020905b81548152906001019060200180831161016157829003601f168201915b505050505081565b6001600160a01b038216600090815260046020526040812080548392906101ae90849061030b565b9250508190555080600360008282546101c7919061030b565b90915550506040518181526001600160a01b038316907f619caafabdd75649b302ba8419e48cccf64f37f1983ac4727cfb38b57703ffc99060200160405180910390a25050565b60018054610105906102d1565b602081526000825180602084015260005b81811015610249576020818601810151604086840101520161022c565b506000604082850101526040601f19601f83011684010191505092915050565b80356001600160a01b038116811461028057600080fd5b919050565b6000806040838503121561029857600080fd5b6102a183610269565b946020939093013593505050565b6000602082840312156102c157600080fd5b6102ca82610269565b9392505050565b600181811c908216806102e557607f821691505b60208210810361030557634e487b7160e01b600052602260045260246000fd5b50919050565b8082018082111561032c57634e487b7160e01b600052601160045260246000fd5b9291505056fea2646970667358221220ecd7f82a1259745975618645647d27538526d7a203186ffcaa5cfa3c4e04454064736f6c634300081c0033",
  "linkReferences": {},
  "deployedLinkReferences": {}
}