{
  "_format": "hh-sol-artifact-1",
  "contractName": "UserRegistry",
  "sourceName": "contracts/UserRegistry.sol",
  "abi": [
    {
      "anonymous": false,
      "inputs": [
        {
          "indexed": true,
          "internalType": "bytes32",
          "name": "commitment",
          "type": "bytes32"
        }
      ],
      "name": "UserRegistered",
      "type": "event"
    },
    {
      "inputs": [
        {
          "internalType": "bytes32",
          "name": "_commitment",
          "type": "bytes32"
        }
      ],
      "name": "registerUser",
      "outputs": [],
      "stateMutability": "nonpayable",
      "type": "function"
    },
    {
      "inputs": [
        {
          "internalType": "bytes32",
          "name": "",
          "type": "bytes32"
        }
      ],
      "name": "users",
      "outputs": [
        {
          "internalType": "bytes32",
          "name": "commitment",
          "type": "bytes32"
        },
        {
          "internalType": "uint256",
          "name": "reputation",
          "type": "uint256"
        },
        {
          "internalType": "uint256",
          "name": "joinDate",
          "type": "uint256"
        },
        {
          "internalType": "bool",
          "name": "active",
          "type": "bool"
        }
      ],
      "stateMutability": "view",
      "type": "function"
    }
  ],
  "bytecode": "0x6080604052348015600f57600080fd5b506101e78061001f6000396000f3fe608060405234801561001057600080fd5b50600436106100365760003560e01c80632dc032591461003b578063cea6ab9814610050575b600080fd5b61004e610049366004610198565b6100ae565b005b61008861005e366004610198565b60006020819052908152604090208054600182015460028301546003909301549192909160ff1684565b604080519485526020850193909352918301521515606082015260800160405180910390f35b60008181526020819052604090206003015460ff16156101145760405162461bcd60e51b815260206004820152601760248201527f5573657220616c72656164792072656769737465726564000000000000000000604482015260640160405180910390fd5b6040805160808101825282815260646020808301918252428385019081526001606085018181526000888152938490528684209551865593519085015551600284015590516003909201805460ff191692151592909217909155905182917f78997021e09413de1e36500ed07f9f6c73541162817fc3ea6a115e5e3d3affb991a250565b6000602082840312156101aa57600080fd5b503591905056fea264697066735822122082471a5bd0f67b617618d1061fbe3d02d593492ec7769f690a8a61be40dbb4c264736f6c634300081c0033",
  "linkReferences": {},
  "deployedLinkReferences": {}
}